:020000040000fa
:080000000002040000000000f2
:020000040000fa
:100008009a0200009a0200009a0200009a02000078
:100018009a0200009a0200009a0200009a02000068
:100028009a0200009a0200009a0200009a02000058
:100038009a0200009a0200009a0200009a02000048
:020000040000fa
:020000040000fa
:100400006f8920000eff20000e0188000000000010
:10041000000020000000e000020032000001200087
:10042000200288000c000700407d21000100200010
:1004300011000700000020000000e0000200320070
:100440000000020000000000600e0200000000003a
:100450000040da000000fe004440a900600d2000ca
:100460000000e0000300320000002000a00188002e
:100470004440a80000000600910188008000780038
:100480000000eb0015003700e280400032a0b4000d
:100490009101ba00e280400032a0b4009102ba009b
:1004a000e280400032a0b4000002eb00472bde00e7
:1004b000f507b200602ce10004003a000059eb009f
:1004c0008301e900fdff3e00040037006128e100e0
:1004d000010032000082eb00040007001101ba00a5
:1004e0000200e000e8ff3a00000006003159ba00bf
:1004f0008301e9000c0032002159ba008301e900b0
:10050000080032000400e00003003a00e2804000ee
:1005100032a0b400f5ff370011d9ba008301e90019
:10052000faff3a008100e800e180400032a0b40008
:10053000000006000040da000000fe0003f0a20008
:10054000889fbe008a9fbe008c1f7800380107007c
:100550003f0133006450e1004f0032006420e100ad
:100560005200320003826c0007003b000905d000f6
:100570000306d000820f54000c065d000200390013
:100580000200320089017800030678008582550058
:1005900004003d000003fd008103fd008502ea0028
:1005a0008b854200840f720002003b006000100047
:1005b000e08018006011b8000005eb007a28e10027
:1005c0000a00390006007800c75ddd00f707b200b9
:1005d000878075002d003700828171000a01780044
:1005e000610560008180d1000080d3008502e900b0
:1005f000f9ff3b00060440008784480002003b00ee
:1006000060041400e0841c000988a3000700320085
:100610008a81710082817100610164008904d100c6
:100620000884d3008b05e800170037000978a30081
:1006300013003a000b00e000130034008b05e900c2
:100640000804440089844c000a4474000978a3001b
:100650000d003a000b00e000070034008b05e900b4
:100660000804440089844c0001003a000b0020007b
:100670000978a300f7ff32000001eb000200370009
:10068000828171000a017800ae0007000cf0a7001b
:1006900001f0a000f70037006420e10002003a00fa
:1006a000838f6c00f70033000801be000200be001b
:1006b000f00037000001eb00570007000400320093
:1006c0000200200003f8230001f0a6009cff0700b1
:1006d00000000600889fbe008a9fbe008c1f780025
:1006e000d3000700da00330003866c006450e10099
:1006f0002e0032006420e100330032006150e1003e
:100700002f0032006120e100310032008585550064
:10071000eb07b000090020000804200005003700a6
:100720000804440089844c000a0031000603430099
:1007300087834b000001530081815b00f8ff330089
:100740000203be000800a0000804440089844c0095
:10075000f6ff3900c639dd00830173000100320065
:10076000130020008904d1000884d3000998a30055
:10077000050032000800a7000300a0008904d10092
:100780000884d3008b05e8008904d1000884d300d5
:100790000001eb000281d2006a00070001f0a10015
:1007a0000cf0a70001f0a000b20037006420e100c7
:1007b000b40032000801be000200be00f7ff37009f
:1007c0006120e100af0032006000b800f3ff3700a5
:1007d0000000200001f82700f0ff3700839f680029
:1007e0000100e00002003d0060001000e080180001
:1007f0000300e00002003d0060011100e0811900eb
:10080000170207004f00e00002003b0060001000ec
:10081000e080180000000600889fbe008a9fbe008e
:100820000003be006d00070085057800828152003c
:10083000020020006220e10004003a00f307b1004a
:10084000040035007718e100040035000600be0002
:10085000140037006000b8000f003700f50f2000cb
:10086000faff2f008502d1000a85d3008301e90039
:10087000fcff3b008184620000046500890f740066
:10088000f2ff32008582ea000a85ea008184620074
:10089000000465002b00070007f0a70001f0a0008e
:1008a0000081eb000200e0004f05be004f04be00d7
:1008b000000006000001be00480007000470a70009
:1008c00003f0a1006509b100160032000d003500eb
:1008d0006828e10006003500f0ff2f00f1ff270037
:1008e0000300e00013003b000100280000000500a9
:1008f00000004000818048008502e900fcff3a00ca
:1009000008003700f88f420002003c008000eb0036
:10091000000005008100d1000080d3008502e800be
:10092000fcff3a000300e00002003b006000100002
:10093000e0801800000006004f89de008201780088
:100940004a02370081002000618055000b003d0005
:100950000b00200061fe2f000100e1001d003400ab
:1009600082817100610164008904d1000884d30090
:100970000000e800faff3a00710020006100640006
:1009800003007000020060000900320061044400ae
:10099000e0844c000988a500050032008b05e800c2
:1009a0006808e10002003a008904d1000884d300fd
:1009b000f20f20000258e10005003d00c75ddd0098
:1009c000f907b20089807500080078000000060071
:1009d0000bf827008b00780000000500c70ade0036
:1009e000f107b200f50fb20008003200e1cf42007b
:1009f000020032000170a00024000500810f700089
:100a0000010032000408050044000500810f700059
:100a100002003a00140005008502e90000004000d1
:100a200081c04800fcff3b000170a00024000500cd
:100a30000004be00e9ff07000003be000405be007d
:100a40000200be00e5ff0700844f750000000600ad
:100a50000200be006450e100050036006420e100a1
:100a6000020036000968a30001003a000800be0039
:100a70000160a0004f0678004f05be004f04be0085
:100a800000000600f0ff2f00f1ff2700f9ff3700fc
:100a90000300070092bd2500e3ed23005700370057
:100aa000889fbe008a9fbe008c9fbe007c0107000d
:100ab000850478000005be006420e10049003e0086
:100ac0006220e10003003200090035000bf8a300aa
:100ad000440032000bf8a30008003200100220008e
:100ae00070448800f0ff2f00f1ff27003d00370021
:100af00001f82f00000020003a0037003d000700f9
:100b00008efe07000006be000a00be00324f200025
:100b100053f32300d3010700060034000c00be008d
:100b20003400070085fe07000006be000a00be0074
:100b3000020037008904e9000c00be002d00070008
:100b40002e0007002b0007007dfe07000001be00fd
:100b50000c00be00dffe07000005be000001be0065
:100b6000260007000006be00a2f32300430d2c0060
:100b700073fe0700809fbe000c00be00d2e327007a
:100b8000d3f02b001d0007004f01be00d1fe07006f
:100b90000006be000a01be00180007000a01be00e0
:100ba00067fe07000006be006148b90062ff07004b
:100bb0000005be0032082800e3952b000f00070057
:100bc0000c01be005efe07000006be000a00be006b
:100bd0000200280013f32300080007000c01be00e8
:100be00057fe07004f06be004f05be004f04be0073
:100bf0000000060003f0230002000500889fbe00ed
:100c00008a9fbe008c1f780089ff070090ff330089
:100c100003866c006450e100240032006420e1008f
:100c2000270032006150e100220032006120e10023
:100c3000210032008b854200eb07b1000134b8007f
:100c4000003ab8000804420089844a00013ab8001a
:100c50000030b8008880400009014a0004003300d9
:100c60000000400081804800020149008b05e90036
:100c7000c909dd008301700001003200130020006b
:100c8000c814de004814dd004709de001200b2007f
:100c9000c808de00088470002aff070001f0a100e8
:100ca0000cf0a70001f0a00072ff37006120e10006
:100cb00074ff32000801be000200be00f7ff3700db
:100cc0006150e100fcff3a006eff37000c00fa00b3
:100cd000889fbe008a9fbe008c9fbe0054ff070005
:100ce0000206be00840578000200be00020020005b
:100cf000c9fe070005003a008b02b3001200200075
:100d0000c5fe070001003a00f8856d000c01be0029
:100d1000c60007000800be009b0032000b08a300bd
:100d20009e003a000df0a7000be0a00009f0a7001c
:100d30000bf0a00009f0a1000801be00bb000700f5
:100d40000bf0a6009500320001003c000bd0a00083
:100d50008acf7500b20033006000b8006250e10035
:100d600099003900a1003e000b28a300a2003a0020
:100d70000bf8a300060032000b58a300a7003200b6
:100d80000801be00a90007000800be009400320060
:100d90000800be00c20007000004be000505780080
:100da0000bf0a7000b30a6000bf0a1005b0798002a
:100db000324f200053f323002801070005003d00b7
:100dc0000800be0012002000670107000004be00fa
:100dd0000a05e9004a0798006150b900d6fe0700ed
:100de000008fbe000c01be0084ff0700b1fe0700ab
:100df000300798000100e00002003d006000100094
:100e0000e0801800f2ff2700820f5000e08f5800aa
:100e100064003e000c00be00a6fe070020079800fc
:100e2000f2072000820f5000e08f580005003c00c0
:100e300012f82f00f3ff2f00820f5000838f58000d
:100e400009003d000a00e0000300320001003c0000
:100e50000201ea00020578006000b800200798004f
:100e60003a079800190037003e0090006100b90071
:100e7000b1fe0700809fbe000c00be004109dd00ee
:100e80004811de007208b10063fe07000005be00d5
:100e90001e01be0059ff07004f01be00a7fd07005d
:100ea000809fbe000c00be000a01be00a3fd07002b
:100eb0001e01be0051ff07004f01be00a0fd07004c
:100ec0008221270013f323004cff07000005be001a
:100ed0002e0090006100b90097fe070001f0a2000b
:100ee0000c01be0096fd07000006be000800be0013
:100ef000ebfe07000c01be0040ff07000a01be0028
:100f00008ffd0700809fbe004a0007002e0590005d
:100f10000af0a7000a05ea00050037000800be0035
:100f20000801be0035ff07000004be000c00be0033
:100f30000801be000a00a70030ff07000006be003f
:100f40000a05d100f5ff3a005e01900002e0a6001c
:100f5000030037000001be0036000700ddfd07007a
:100f60000004be004f00be005a0007000801be008a
:100f700022ff07003e019000fb000700de05900005
:100f80000bf0a70001f0a2004f06be004f05be0007
:100f90004f04be000080fa00000006002500070094
:100fa000f9ff3700270007006000b8000bd0a7004a
:100fb0000bc0a0000be0a7000bc0a2000bc0a70055
:100fc00001f82700f0ff37000df8a30002003200ff
:100fd0001e000700190007000bf8a300eaff32000b
:100fe0000b30a70001f0a200e7ff37000df8a300c7
:100ff000f9ff3a00f7ff37000801be000b000700b9
:10100000e6ff320001003c000df0a2006000b800d5
:101010000df0a70009000700dbff37000b000700f9
:10102000f1ff2700f0ff2f00d7ff37000100070076
:101030008a00370001f823000000050001f82700ae
:1010400000000500200220000100370010022000ef
:1010500070448800000006000001eb00e400370047
:101060006022b800060220000000d0008180d2007b
:101070000482d2008582d2000000a0000202520049
:1010800083825a00030031000202420083824a0038
:101090000000a1000603e900f3ff3a00000006008b
:1010a0000003be004dfe07006220e1000200320096
:1010b0000600be0005000500e507b100f107b2001b
:1010c00004f023008480700007f0a70001f0a00066
:1010d00024000500889fbe008a9fbe008c9fbe0032
:1010e0000004be003dfe07000800be006420e100d1
:1010f00048003e005500320072212700132b2400c7
:101100005800070047003c000800be00c2ec280061
:10111000e32c2c0051000700470035000800be00fa
:1011200001f0a10002002000033823004b0007005b
:10113000430035000800be00b2a32a0083fb230051
:10114000aefe07000200200003f0230001f0a7001c
:1011500003f0a000fafc0700d6fd07000005be0062
:10116000f5fd070001f0a2000006be000200280005
:1011700013f32300a1fe07000801be00f0fc0700e6
:10118000809fbe000c00be0032082800e3952b00b3
:101190009afe07004f01be00e9fc07000006be00f2
:1011a0000001be0095fe0700809fbe004241250061
:1011b00083b8230091fe07000200200003e823000b
:1011c000dffc07000c01be008cfe07000006be001d
:1011d0004f00be00f2f92b00c3d4230087fe0700a6
:1011e0000200200003f02300d5fc07000c01be0024
:1011f000d2fc07000001be000c00be0035fd070058
:101200000200200003f02300cdfc0700610145002f
:10121000550007004f06be004f05be004f04be003c
:101220000000060001f82700000020002202200034
:1012300072448800f7ff37006000b800fbff3700fa
:1012400001f8230000002000f2ff370009f8a30096
:10125000f0ff32006000b800eeff370014002000fd
:10126000cc003700f4ff2f00ca003700881f780039
:10127000030478000300e00007003d006000100058
:10128000e080180060011900e081190002003b00b5
:1012900001f02d00030037000400070008f0a7004c
:1012a00001f0a0004f04780000000600889fbe00f7
:1012b0008a9fbe00008270000402710004827100e7
:1012c000260032000004be000200be006011b8001b
:1012d0006b092000950220000182cf000a0039002e
:1012e0000541b1000082cf00070039000541b1007f
:1012f0000982cf00040039000541b1000882cf0007
:10130000010039000541b1000542520012003200cf
:101310000a003b0082817100610164008100d100fc
:101320000080d3008984d3000884d3008b05e800b3
:101330000442e800f7ff3a000700370008044400c1
:1013400089844c0000004800818048008b05e9003a
:101350000442e900f9ff3a007afd07004f05be009c
:101360004f04be00000006000003be009bfd070006
:101370006220e100020032000600be00000006000c
:1013800085024100e30f20000328e10005003c0036
:10139000a3fe2f000328e10007003d000500200008
:1013a00001003700f50f2000200220007044880063
:1013b0006000b8000800370013002000838152004d
:1013c00005003d008100d1000080d3008301e800ca
:1013d000fcff3a0005002000c72add00f107b2003b
:1013e0008580700007f0a70001f0a0000000060053
:1013f000889fbe008a9fbe008c9fbe008205780039
:101400000004be0075fd07000800be006420e10076
:101410000700390002003a00f1ff2700f0ff2f001b
:101420000160a000120220007244880055003700bd
:101430006120e10003003a000b00a70001f823003f
:101440005000370001f0a100020021009364240045
:1014500082ff07000800be0004003500b2fd200036
:10146000930c2400660007000004be000005eb009a
:101470000b00a6004f0dde0001f0a1000004be002d
:1014800032982f0023ea2300dcfd07000001eb0067
:1014900003f023000b00a70003f8230028fc07003b
:1014a00004fd07000000a7000a00a20022fd0700bb
:1014b0000b00e000030032000200200003f02300d4
:1014c0001efc070001f0a2000006be000200200082
:1014d00093042400c9fd07000801be0018fc0700a2
:1014e000809fbe000c00be0022a22a00d3a72300ca
:1014f000c2fd07004f01be0011fc07000004be0042
:1015000001f0a100020020000398230053ff070010
:101510000800be00190035000001be00b7fd07003d
:101520000006be00b2c52900e3622300b3fd070038
:1015300022222b00f3942b0001fc07000c01be00bb
:10154000aefd0700e273280083c02300fcfb070008
:101550000c01be00a9fd070042aa2a00a3e22b004d
:10156000f7fb07000c01be00a4fd07000801be0048
:10157000a2fd07000801be00f1fb07000a00a7005a
:1015800001f0a2004f06be004f05be004f04be0092
:1015900000000600889fbe008a9fbe00841f78005e
:1015a00023fd07004f00780011003300f0ff2f00eb
:1015b000838f6c0006003b00040565000a00a7004d
:1015c0000800370009f0a6001000200008003700ce
:1015d000820f5400838f5c0003003900100020004c
:1015e00001003e000000200009f0a7000000ea0012
:1015f0004f05be004f04be000000e00000000600e2
:101600000400200000003700889fbe008a9fbe00b3
:101610008c1f78004f26dd0005fd07000cfd330010
:101620006120e100430032006250e10041003e00d1
:101630003e0039006420e1003c0032000582550084
:101640000f003b000402e80038003a00800f53000e
:10165000818f5b00350034000800be0003f0a1005c
:1016600001f0a60003f0a0000cf0a700b4fb0700f7
:1016700000fd37000603430087834b000c464600fd
:101680000005530081855b00020033000a03be00a1
:101690000c00a0000402e900f6ff3b00850578007d
:1016a0000602430087824b0004003a006000b80045
:1016b00009f0a70001f0a000eefc37000002520084
:1016c00081825a000704e00004003300060343004f
:1016d00087834b008b05e900faff37000905780086
:1016e0000604be000203be006011b80095fc0700ae
:1016f000e00f5200e08f5a000700350002003c0066
:101700000c08a300040032000601be0003f0a00094
:101710000cf0a7008afb07000a85680001f0a10011
:101720000af0a70001f0a000d2fc37000800be00bc
:10173000d0fc3700100220000cf0a6007044880096
:10174000d0fc370015c0b300010020000489200040
:1017500090448800a1448800054a780000000600f3
:10176000048920008042eb0094cf120002003a006e
:1017700010002000f3ff070090448000a144800087
:10178000d2e62400631c2400090007009403230010
:10179000050020000002420081824a009444880033
:1017a000a54488000500780000f0a10000000600b4
:1017b000020ab900001bb9000200b8008100420013
:0817c000810043000000060057
:020000040000fa
:1017c8004772000061700000682000004f6e000042
:1017d800652000002d2000004c65000066740000a4
:1017e8006f76000065720000730000004772000009
:1017f8006170000068200000547700006f0000004e
:10180800582d00006178000069730000206c00000a
:1018180061620000656c000000590000204c000067
:1018280061620000656c0000004700007261000002
:1018380070680000205400006872000065650000b0
:101848000058000020560000616c0000756500001b
:101858000059000020560000616c0000756500000a
:101868000047000072610000706800002046000018
:101878006f75000072000000477200006170000080
:1018880068200000466900007665000000470000f7
:101898007261000070680000205300006978000041
:1018a800002d0000203600002058000020560000bf
:1018b800616c00007565000020360000202d0000d6
:1018c80000470000726100007068000020530000ab
:1018d80065760000656e0000002d00002d200000d8
:1018e80058200000566100006c750000652000005b
:1018f8002d2d000000470000726100007068000094
:101908002045000069670000687400000059000065
:101918003d35000030730000696e00002854000057
:1019280068650000746100002f3300003029000052
:10193800002d00002039000020580000205600002b
:10194800616c00007565000020390000202d000042
:10195800003900002059000020560000616c00008a
:0c19680075650000203900000000000040
:020000040000fa
:101974000000fa0090c1b300100507000080fa00cf
:10198400000006000000fa00b0c1b3000b05070018
:101994000080fa00000006000e00fa00000f780034
:1019a400110798002207980033079800440798000d
:1019b4005507980066079800c0c1b300ff040700ec
:1019c4001e0278000442780004407800fb040700fb
:1019d4001e0278004822de000442780004407800a9
:1019e400f60407001e0290000442780004407800c8
:1019f400f20407001e0290004822de000442780030
:101a040004407800ed0407002e02900004427800a0
:101a140004407800e90407002e0290004822de000a
:101a24000442780004407800e40407003e02900079
:101a34000442780004407800e00407003e0290006d
:101a44004822de000442780004407800db040700ea
:101a54004e0290000442780004407800d704070046
:101a64004e0290004822de000442780004407800d0
:101a7400d20407005e02900004427800044078001b
:101a8400ce0407005e0290004822de000442780083
:101a940004407800c90407006e02900004427800f4
:101aa40004407800c50407006e0290004822de005e
:101ab4000442780004407800c00407000080fa0063
:101ac400000006000200fa00000f7800a0c1b30075
:101ad400ba0407001e02780004427800044078002b
:101ae400b60407001e0278004822de000442780093
:101af40004407800b10407000080fa0000000600ea
:101b04000800fa00000f78001107980022079800d7
:101b140033079800d0c1b300a80407001e02780060
:101b24000442780004407800a40407001e027800f0
:101b34004822de0004427800044078009f04070035
:101b44001e02900004427800044078009b040700c1
:101b54001e0290004822de0004427800044078000f
:101b6400960407002e029000044278000440780096
:101b7400920407002e0290004822de0004427800fe
:101b8400044078008d0407003e029000044278006f
:101b940004407800890407003e0290004822de00d9
:101ba4000442780004407800840407000080fa00ae
:101bb400000006000400fa0010079800e0c1b3001a
:101bc4007e0407000002eb00040f780008003700d1
:101bd4001e02900014427800044078007704070045
:101be4001e0290000402e800140798001e0fe8008b
:101bf4001e027800f60f5200f5ff34000040eb009f
:101c04006e0407000080fa00000006000400fa00d9
:101c14001007980000c2b300680407000002eb003c
:101c2400040f7800080037001e0290001442780068
:101c340004407800610407001e0290000402e800da
:101c4400140798001e0fe8001e027800f60f5200d9
:101c5400f5ff34000040eb00580407000080fa0050
:101c6400000006000400fa0010079800f0c1b30059
:101c7400520407000002eb00040f7800080037004c
:101c84001e02900014427800044078004b040700c0
:101c94001e0290000402e800140798001e0fe800da
:101ca4001e027800f60f5200f5ff34000040eb00ee
:101cb400420407000080fa00000006000e00fa004b
:101cc400889fbe00c922a900400620005c040700ca
:101cd4000000eb00280407000002eb00040f78006a
:101ce400030037000040eb00340407001e0fe80037
:101cf4001e027800ee0f5200faff340010c0b30049
:101d04002e04070010c0b3002c0407003e04070093
:101d140050c0b3002904070040c4b30027040700df
:101d240040c2b3002504070060c0b30023040700c9
:101d34000fff070013ff07000680280005dd2d00b4
:101d44004444220053fe2a0052fe2a008000eb0085
:101d54000080eb0010ff070013062000720520002e
:101d6400311120000000eb0065ff070040be280091
:101d740090ff070003ff07000002eb001407980020
:101d84002f0037001e029000cfa2de000400be0028
:101d9400e8fa07000002be0002002000031224003b
:101da4000400be004afa07000002be000400be00a0
:101db400a8fc07000002be0002002000031f24004c
:101dc4000400be008cfb07000002be0002002000dd
:101dd400032724000400be00d8f907000002be0057
:101de4000404be005dfe0700000278000520200008
:101df400110009000502d80000027800cfa2de001d
:101e04000400be00cbfa07000002be000401be00bd
:101e14000800be00c9f907000002be000400be00ad
:101e2400a3fa07000002be00240798002e009000c9
:101e340024ff07001e0290000402e8001407980023
:101e44009e02900094222000848f5200cdff340023
:101e5400800c2000fa030700c5fe0700e30b2000f6
:101e6400a2052000411f20000000eb0024ff070012
:101e7400a0bf28004fff070040c0280079ff0700db
:101e840010c1280061ff0700befe07000002eb003e
:101e940014079800320037001e029000cfa2de0023
:101ea4000400be00a3fa07000002be00d2cc2c003e
:101eb400c3dc23000400be004ffb07000002be0089
:101ec40002002000031724000400be009af9070052
:101ed4000002be0034079800450798003e019000b8
:101ee400ce0190003e009000ce00900042fb07001f
:101ef4000002be003e019000ce0190000400be002e
:101f04003dfb07000002be0002002000831e2400e7
:101f14000400be00eef907000002be00020020002b
:101f2400032f24000400be0084f907000002be0051
:101f340054079800650798005e009000ee0090003a
:101f44005bfa07000002be00040278000400780077
:101f5400dcfe07001e0290000402e800140798004b
:101f64009e02900044112000848f5200caff340066
:101f7400800c2000b20307007dfe070090c12800fa
:101f84000cff070050c2280036ff0700d0c228000b
:101f94001eff07000083eb00154520000082eb00c4
:101fa4008001eb000001eb008000eb000000eb007f
:101fb40079fe0700930020000001eb00311120009e
:101fc4000000eb00cefe07006efe07000002eb00ef
:101fd40014079800200037001e029000cfa2de00f4
:101fe4000400be0053fa07000002be0002002000f5
:101ff400031224000400be00b5f907000002be006d
:102004000400be0013fc07000002be000200200012
:10201400832424000400be00f7fa07000002be0077
:1020240002002000832c24000400be0043f90700b2
:102034000002be000400be001dfa07000002be003c
:10204400240798002e0090009efe07001e029000b8
:102054000402e800140798009e02900094222000d5
:10206400848f5200dcff3400800c200074030700ce
:102074003ffe070050c32800cefe070050c22800d0
:10208400f8fe0700d0c22800e0fe070010c2b3002b
:102094004a0307000003eb0035fd29000002eb00b2
:1020a4008081eb000081eb008080eb000080eb007e
:1020b40039fe0700430120000001eb0071002000fd
:1020c4000000eb008efe07002efe07000002eb006e
:1020d40014079800200037001e029000cfa2de00f3
:1020e4000400be0013fa07000002be000200200034
:1020f400031224000400be0075f907000002be00ac
:102104000400be00d3fb07000002be000200200052
:10211400832424000400be00b7fa07000002be00b6
:1021240002002000832c24000400be0003f90700f1
:102134000002be000400be00ddf907000002be007c
:10214400240798002e0090005efe07001e029000f7
:102154000402e800140798009e02900094222000d4
:10216400848f5200dcff3400800c2000340307000d
:10217400fffd070000c428008efe070050c228009f
:10218400b8fe0700d0c22800a0fe070006802f007a
:102194008082eb0004012000f35f2000f25f200046
:1021a400c13524000080eb00fbfd070093012000f3
:1021b4000001eb00011920004006200050fe07003a
:1021c400f0fd07000002eb00140798002000370020
:1021d4001e029000cfa2de000400be00d5f9070065
:1021e4000002be0002002000031f24000400be0001
:1021f40037f907000002be000400be0095fb07008b
:102204000002be0002002000832424000400be005b
:1022140079fa07000002be0002002000832c24008b
:102224000400be00c5f807000002be000400be00a2
:102234009ff907000002be00240798002e009000ba
:1022440020fe07001e0290000402e8001407980014
:102254009e02900044112000848f5200dcff340061
:10226400800c2000f6020700c1fd0700b0c428005e
:1022740050fe070050c528007afe0700d0c228008f
:1022840062fe07000003eb008082eb00c4732e00a3
:102294008001eb000001eb008000eb000000eb008c
:1022a400bdfd0700c35d20000001eb0031112000db
:1022b4000000eb0012fe070020c2b300bf020700bb
:1022c400b0fd07000002eb0014079800200037005f
:1022d4001e029000cfa2de000400be0095f90700a4
:1022e4000002be0002002000031224000400be000d
:1022f400f7f807000002be000400be0055fb07000b
:102304000002be0002002000832424000400be005a
:1023140039fa07000002be0002002000832c2400ca
:102324000400be0085f807000002be000400be00e1
:102334005ff907000002be00240798002e009000f9
:10234400e0fd07001e0290000402e8001407980054
:102354009e02900094222000848f5200dcff3400ff
:10236400800c2000b602070081fd070050c628003b
:1023740010fe070010c728003afe0700d0c228004c
:1023840022fe07000003eb008082eb0074df2b00c9
:102394008001eb000001eb008000eb000000eb008b
:1023a4007dfd0700833222000001eb003111200083
:1023b4000000eb00d2fd070072fd07000002eb00f5
:1023c40014079800200037001e029000cfa2de0000
:1023d4000400be0057f907000002be0002002000fe
:1023e400031a24000400be00b9f807000002be006e
:1023f4000400be0017fb07000002be00020020001c
:10240400832424000400be00fbf907000002be0080
:1024140002002000832c24000400be0047f80700bb
:102424000002be000400be0021f907000002be0045
:10243400240798002e009000a2fd07001e029000c1
:102444000402e800140798009e0290004411200042
:10245400848f5200dcff3400800c200078020700d7
:1024640043fd0700f0c72800d2fd070050c2280032
:10247400fcfd0700d0c22800e4fd070026a22800c6
:102484008082eb0004dd2d0053282a0052282a0004
:1024940071c22c000000eb003ffd07004300200048
:1024a4000001eb00010520000000eb0094fd070093
:1024b40034fd07000002eb00140798002f003700da
:1024c4001e029000cfa2de000400be0019f907002e
:1024d4000002be0002002000031224000400be001b
:1024e4007bf807000002be000400be00d9fa070012
:1024f4000002be0002002000832424000400be0069
:10250400bdf907000002be0002002000832c240055
:102514000400be0009f807000002be000404be0067
:102524008efc07000002780005002100110009005c
:102534000502d80000027800cfa2de000400be002d
:10254400fcf807000002be000401be000800be0043
:10255400faf707000002be000400be00d4f807002a
:102564000002be00240798002e00900055fd0700cd
:102574001e0290000402e800140798009e029000d6
:1025840044112000848f5200cdff3400800c2000c1
:102594002b020700f6fc0700430620000001eb00b5
:1025a400411f20000000eb0055fd0700b0c82800c3
:1025b40080fd0700d0c92800aafd0700d0ca280062
:1025c40092fd070036342d008002eb0014842000b5
:1025d40043d22d0042d22d005159220000ea2f008f
:1025e400edfc0700e7fc07000002eb00140798006d
:1025f400200037001e029000cfa2de000400be00bf
:10260400ccf807000002be0002002000031f2400d3
:102614000400be002ef807000002be000400be0045
:102624008cfa07000002be0002002000832424006c
:102634000400be0070f907000002be000200200082
:10264400c32824000400be00bcf707000002be003b
:102654000400be0096f807000002be00240798009c
:102664002e00900017fd07001e0290000402e800ef
:10267400140798009e02900094222000848f520038
:10268400dcff3400800c2000ed010700a0fd3700c2
:102694000200fa00000f78001e027800cfa2de00cc
:1026a4000400be00a3f807000002be000400be0040
:1026b400f6f807000002be000400be00fcf70700a5
:1026c4000002be000400be0079f807000002be004c
:1026d40004027800040078000080fa00000006007c
:1026e4000800fa00889fbe00200798003107980070
:1026f4003e029000cfa2de000400be008df8070069
:102704000004be002e029000cfa2de000400be0032
:1027140088f807000002be000801be000400be00e5
:1027240069f907000002be000400be00e0f70700dc
:102734000002be00048fbe001e00be005cf807004d
:102744000002be0004027800040078004f04be00ba
:102754000080fa00000006001400fa00b540800072
:10276400a440800004825200340798003e00900088
:10277400c7ff070000027800440798004e0290004b
:102784000402e90054079800de009000a000200035
:10279400d3ff07000002780014079800be029000df
:1027a4001e029000110009008402d8000002780083
:1027b400040f78001e027800e10f52000f003c0065
:1027c400de009000a0002000c5ff07000002780092
:1027d40055002000110009000502d800000278000d
:1027e40014079800be0290001e0290001100090018
:1027f4008402d80000027800040f78001e027800da
:10280400ea0f52001c003400de009000a0002000fb
:10281400b3ff070000027800040242001407980086
:10282400be0290001e029000110009008402d8002c
:1028340000027800040f78001e027800ea0f5200ac
:102844000d003400de009000a0002000a4ff07006b
:10285400000278006522b900040278001407980089
:10286400be0290001e029000110009008402d800ec
:1028740000027800040f78009e0278001e02900087
:1028840004aab90004027800640798006e0290005c
:10289400cfa2de00e60b200006abb90006037800e9
:1028a4006020b900800378000703430084027800a5
:1028b400e40b2000042ab8000503430086027800d4
:1028c4003e039000cfb3de000601be000400be004c
:1028d400c1f707000002be00840278001e027800df
:1028e400110009008402d8000002780074079800df
:1028f4000002eb00240798004b003700ae02900062
:102904001e02900004aab90084027800a44080004a
:1029140004824200040f9800ae0290007e029000f0
:1029240004aab90004027800750d20000482520044
:10293400140f9800b0c0b3002001070060c2b300b8
:102944001e0107000040eb001c0107001e0a900056
:102954000442780004407800180107001e0a900021
:102964004822de0004427800044078001301070086
:1029740090c2b300110107000040eb000f010700f3
:102984001e0a900004427800044078000b010700fe
:102994001e0a90004822de000442780004407800b9
:1029a4000601070050c1b300040107000e0a90009d
:1029b4000442780004407800000107000e0a9000e9
:1029c4004822de000442780004407800fb0007003f
:1029d40020c0b300f90007000040eb00f700070037
:1029e40070c2b300f50007000040eb00f3000700dd
:1029f4001e0a9000044278006642520004407800a7
:102a0400ee0007001e0a9000660252004822de0013
:102a14000442780004407800e80007002e02900089
:102a24000402e800240798009e02e8002e029000a9
:102a3400848f5200b1ff3c000080fa0000000600c1
:102a44001600fa0095408000844080000482520001
:102a5400340798003e0090000dff07000002780044
:102a6400440798004e0290000402e90054079800bd
:102a7400de009000a000200019ff0700000278008b
:102a840014079800be0290001e0290001100090075
:102a94008402d80000027800040f78001e02780037
:102aa400e10f52000f003c00de009000a000200067
:102ab4000bff070000027800250020001100090028
:102ac4000502d8000002780014079800be029000a6
:102ad4001e029000110009008402d8000002780050
:102ae400040f78001e027800ea0f52001c00340024
:102af400de009000a0002000f9fe0700000278002c
:102b04000402420014079800be0290001e029000c6
:102b1400110009008402d80000027800040f780034
:102b24001e027800ea0f52000d003400de0090000f
:102b3400a0002000eafe0700000278006522b90028
:102b44000402780014079800be0290001e02900050
:102b5400110009008402d80000027800040f7800f4
:102b64009e0278001e02900004aab90004027800b4
:102b7400640798006e029000cfa2de007611200058
:102b840006abb900060378006020b9008003780022
:102b9400070343008402780074112000042ab8005b
:102ba40005034300860278003e039000cfb3de00a5
:102bb4000601be000400be0007f707000002be00c5
:102bc400840278001e027800110009008402d800f3
:102bd40000027800740798000002eb0024079800b4
:102be40060003700ae0290001e02900004aab900f3
:102bf40084027800a440800004824200040f9800fc
:102c0400ae0290007e02900004aab900040278008b
:102c14008402b000140f9800b0c0b300670007002e
:102c24001e0a900004427800044078006300070004
:102c34001e0a90004822de00044278000440780016
:102c44005e00070020cdb3005c0007000040eb00ed
:102c54005a0007001e0a90000442780004407800dd
:102c6400560007001e0a90004822de000442780045
:102c74000440780051000700c0cdb3004f000700a6
:102c84000040eb004d0007000e0a9000cfa2de00ca
:102c94000400be0027f707000002be000400be00c7
:102ca4007af707000002be00020020000308240097
:102cb4000400be00d0f707000002be000400be00fe
:102cc400fbf607000002be00040278006402420022
:102cd400240f980050c1b300380007000e0a90007a
:102ce4000442780004407800340007000e0a900083
:102cf4004822de0004427800044078002f000700d8
:102d04000040eb002d0007000040eb002b00070003
:102d14001e0a9000844278002e0a90000442780033
:102d240004c2520004407800240007009e0a900068
:102d34002e0a9000048252004822de0004427800e9
:102d4400044078001d000700a0cdb3001b0007005d
:102d54000040eb00190007002e0290000402e80076
:102d6400240798002e0290009e0f52009dff35000c
:102d74000080fa00000006000200fa00000f78004c
:102d8400c4002000441188001e027800e00f5200a5
:102d940003003200044028000411880002003700b8
:102da4000400280004118800044420001411880041
:102db4008560a9000080fa00000006000200fa0005
:102dc400004f78000000000015118000042020004e
:102dd40004826200e00f5200fbff3a000000000092
:102de400151180000410200004826200e00f5200dc
:102df400fbff32009e4278000582fb00241188000c
:102e04000080fa00000006000200fa000002eb0055
:102e1400040f7800050037000040eb00e7ff0700cf
:102e2400a00020001e0007001e0fe8001e0278000c
:102e3400f30f5200f8ff34000080fa00000006008f
:102e44000600fa0020079800cd22a9000002eb003a
:102e5400140798000b0037000002eb00040f780001
:102e6400010037001e0fe800f4cf27009e0278000f
:102e7400848f5200fbff34001e0290000402e8001d
:102e8400140798009e0290002e029000848f520036
:102e9400f1ff3500cd22a8000080fa0000000600f2
:102ea4000600fa00200798000002eb0014079800bf
:102eb4000b0037000002eb00040f7800010037001c
:102ec4001e0fe800743e20009e027800848f52009a
:102ed400fbff34001e0290000402e800140798006f
:102ee4009e0290002e029000848f5200f1ff350064
:102ef4000080fa00000006000a00fa00100798009b
:102f04002107980032079800430798001e0290009a
:102f1400040f78001d003700d0c0b300a7ff0700de
:102f24004e0290001442780004407800a3ff07008a
:102f34001e02780004427800044078009fff0700d6
:102f44001e0278004822de00044278000440780023
:102f54009aff07002e029000044278000440780093
:102f640096ff07002e0290004822de0004427800fb
:102f74000440780091ff07003e0290001e0f4200bb
:102f84004e0290000402e800440798004e029000ac
:102f940014427800e04f5200dfff3a000080fa004c
:042fa4000000060023
:020000040000fa
:102fa800000800007c000000000000007c08000011
:102fb8001200000002000000592d410078697300da
:102fc80020416e006e6f7400617469006f6e0000be
:102fd8008e080000020000000000000090080000b9
:0c2fe800060000000000000000000000d7
:020000040000fa
:0200000401f009
:04000c00f9ff0000f8
:020000040000fa
:0200000401f009
:040014005fff00008a
:00000001FF
